{
  "contractName": "FishTankContract",
  "abi": [
    {
      "inputs": [],
      "stateMutability": "nonpayable",
      "type": "constructor"
    },
    {
      "anonymous": false,
      "inputs": [
        {
          "indexed": true,
          "internalType": "address",
          "name": "owner",
          "type": "address"
        },
        {
          "indexed": true,
          "internalType": "address",
          "name": "approved",
          "type": "address"
        },
        {
          "indexed": true,
          "internalType": "uint256",
          "name": "tokenId",
          "type": "uint256"
        }
      ],
      "name": "Approval",
      "type": "event"
    },
    {
      "anonymous": false,
      "inputs": [
        {
          "indexed": true,
          "internalType": "address",
          "name": "owner",
          "type": "address"
        },
        {
          "indexed": true,
          "internalType": "address",
          "name": "operator",
          "type": "address"
        },
        {
          "indexed": false,
          "internalType": "bool",
          "name": "approved",
          "type": "bool"
        }
      ],
      "name": "ApprovalForAll",
      "type": "event"
    },
    {
      "anonymous": false,
      "inputs": [
        {
          "indexed": true,
          "internalType": "address",
          "name": "previousOwner",
          "type": "address"
        },
        {
          "indexed": true,
          "internalType": "address",
          "name": "newOwner",
          "type": "address"
        }
      ],
      "name": "OwnershipTransferred",
      "type": "event"
    },
    {
      "anonymous": false,
      "inputs": [
        {
          "indexed": true,
          "internalType": "address",
          "name": "from",
          "type": "address"
        },
        {
          "indexed": true,
          "internalType": "address",
          "name": "to",
          "type": "address"
        },
        {
          "indexed": true,
          "internalType": "uint256",
          "name": "tokenId",
          "type": "uint256"
        }
      ],
      "name": "Transfer",
      "type": "event"
    },
    {
      "inputs": [
        {
          "internalType": "address",
          "name": "to",
          "type": "address"
        },
        {
          "internalType": "uint256",
          "name": "tokenId",
          "type": "uint256"
        }
      ],
      "name": "approve",
      "outputs": [],
      "stateMutability": "nonpayable",
      "type": "function"
    },
    {
      "inputs": [
        {
          "internalType": "address",
          "name": "owner",
          "type": "address"
        }
      ],
      "name": "balanceOf",
      "outputs": [
        {
          "internalType": "uint256",
          "name": "",
          "type": "uint256"
        }
      ],
      "stateMutability": "view",
      "type": "function",
      "constant": true
    },
    {
      "inputs": [
        {
          "internalType": "address",
          "name": "",
          "type": "address"
        }
      ],
      "name": "businesses",
      "outputs": [
        {
          "internalType": "string",
          "name": "name",
          "type": "string"
        },
        {
          "internalType": "uint256",
          "name": "funds_needed",
          "type": "uint256"
        },
        {
          "internalType": "bool",
          "name": "funding",
          "type": "bool"
        },
        {
          "internalType": "uint256",
          "name": "funds_raised",
          "type": "uint256"
        }
      ],
      "stateMutability": "view",
      "type": "function",
      "constant": true
    },
    {
      "inputs": [
        {
          "internalType": "uint256",
          "name": "tokenId",
          "type": "uint256"
        }
      ],
      "name": "getApproved",
      "outputs": [
        {
          "internalType": "address",
          "name": "",
          "type": "address"
        }
      ],
      "stateMutability": "view",
      "type": "function",
      "constant": true
    },
    {
      "inputs": [
        {
          "internalType": "address",
          "name": "owner",
          "type": "address"
        },
        {
          "internalType": "address",
          "name": "operator",
          "type": "address"
        }
      ],
      "name": "isApprovedForAll",
      "outputs": [
        {
          "internalType": "bool",
          "name": "",
          "type": "bool"
        }
      ],
      "stateMutability": "view",
      "type": "function",
      "constant": true
    },
    {
      "inputs": [],
      "name": "name",
      "outputs": [
        {
          "internalType": "string",
          "name": "",
          "type": "string"
        }
      ],
      "stateMutability": "view",
      "type": "function",
      "constant": true
    },
    {
      "inputs": [],
      "name": "owner",
      "outputs": [
        {
          "internalType": "address",
          "name": "",
          "type": "address"
        }
      ],
      "stateMutability": "view",
      "type": "function",
      "constant": true
    },
    {
      "inputs": [
        {
          "internalType": "uint256",
          "name": "tokenId",
          "type": "uint256"
        }
      ],
      "name": "ownerOf",
      "outputs": [
        {
          "internalType": "address",
          "name": "",
          "type": "address"
        }
      ],
      "stateMutability": "view",
      "type": "function",
      "constant": true
    },
    {
      "inputs": [],
      "name": "renounceOwnership",
      "outputs": [],
      "stateMutability": "nonpayable",
      "type": "function"
    },
    {
      "inputs": [
        {
          "internalType": "address",
          "name": "from",
          "type": "address"
        },
        {
          "internalType": "address",
          "name": "to",
          "type": "address"
        },
        {
          "internalType": "uint256",
          "name": "tokenId",
          "type": "uint256"
        }
      ],
      "name": "safeTransferFrom",
      "outputs": [],
      "stateMutability": "nonpayable",
      "type": "function"
    },
    {
      "inputs": [
        {
          "internalType": "address",
          "name": "from",
          "type": "address"
        },
        {
          "internalType": "address",
          "name": "to",
          "type": "address"
        },
        {
          "internalType": "uint256",
          "name": "tokenId",
          "type": "uint256"
        },
        {
          "internalType": "bytes",
          "name": "data",
          "type": "bytes"
        }
      ],
      "name": "safeTransferFrom",
      "outputs": [],
      "stateMutability": "nonpayable",
      "type": "function"
    },
    {
      "inputs": [
        {
          "internalType": "address",
          "name": "operator",
          "type": "address"
        },
        {
          "internalType": "bool",
          "name": "approved",
          "type": "bool"
        }
      ],
      "name": "setApprovalForAll",
      "outputs": [],
      "stateMutability": "nonpayable",
      "type": "function"
    },
    {
      "inputs": [
        {
          "internalType": "bytes4",
          "name": "interfaceId",
          "type": "bytes4"
        }
      ],
      "name": "supportsInterface",
      "outputs": [
        {
          "internalType": "bool",
          "name": "",
          "type": "bool"
        }
      ],
      "stateMutability": "view",
      "type": "function",
      "constant": true
    },
    {
      "inputs": [],
      "name": "symbol",
      "outputs": [
        {
          "internalType": "string",
          "name": "",
          "type": "string"
        }
      ],
      "stateMutability": "view",
      "type": "function",
      "constant": true
    },
    {
      "inputs": [
        {
          "internalType": "uint256",
          "name": "tokenId",
          "type": "uint256"
        }
      ],
      "name": "tokenURI",
      "outputs": [
        {
          "internalType": "string",
          "name": "",
          "type": "string"
        }
      ],
      "stateMutability": "view",
      "type": "function",
      "constant": true
    },
    {
      "inputs": [
        {
          "internalType": "address",
          "name": "from",
          "type": "address"
        },
        {
          "internalType": "address",
          "name": "to",
          "type": "address"
        },
        {
          "internalType": "uint256",
          "name": "tokenId",
          "type": "uint256"
        }
      ],
      "name": "transferFrom",
      "outputs": [],
      "stateMutability": "nonpayable",
      "type": "function"
    },
    {
      "inputs": [
        {
          "internalType": "address",
          "name": "newOwner",
          "type": "address"
        }
      ],
      "name": "transferOwnership",
      "outputs": [],
      "stateMutability": "nonpayable",
      "type": "function"
    },
    {
      "inputs": [],
      "name": "totalSupply",
      "outputs": [
        {
          "internalType": "uint256",
          "name": "",
          "type": "uint256"
        }
      ],
      "stateMutability": "view",
      "type": "function",
      "constant": true
    },
    {
      "inputs": [
        {
          "internalType": "address",
          "name": "minter",
          "type": "address"
        },
        {
          "internalType": "string",
          "name": "tokenURI",
          "type": "string"
        }
      ],
      "name": "giveToken",
      "outputs": [
        {
          "internalType": "uint256",
          "name": "",
          "type": "uint256"
        }
      ],
      "stateMutability": "nonpayable",
      "type": "function"
    },
    {
      "inputs": [
        {
          "internalType": "uint256",
          "name": "memberType",
          "type": "uint256"
        }
      ],
      "name": "useralreadyExists",
      "outputs": [
        {
          "internalType": "bool",
          "name": "",
          "type": "bool"
        }
      ],
      "stateMutability": "view",
      "type": "function",
      "constant": true
    },
    {
      "inputs": [
        {
          "internalType": "uint256",
          "name": "memberType",
          "type": "uint256"
        }
      ],
      "name": "register",
      "outputs": [],
      "stateMutability": "nonpayable",
      "type": "function"
    },
    {
      "inputs": [
        {
          "internalType": "string",
          "name": "name",
          "type": "string"
        }
      ],
      "name": "createBuisness",
      "outputs": [],
      "stateMutability": "nonpayable",
      "type": "function"
    },
    {
      "inputs": [
        {
          "internalType": "uint256",
          "name": "funds",
          "type": "uint256"
        }
      ],
      "name": "startFunding",
      "outputs": [],
      "stateMutability": "nonpayable",
      "type": "function"
    },
    {
      "inputs": [],
      "name": "endFunding",
      "outputs": [],
      "stateMutability": "nonpayable",
      "type": "function"
    },
    {
      "inputs": [
        {
          "internalType": "address payable",
          "name": "business",
          "type": "address"
        },
        {
          "internalType": "uint256",
          "name": "amount",
          "type": "uint256"
        }
      ],
      "name": "invest",
      "outputs": [],
      "stateMutability": "payable",
      "type": "function",
      "payable": true
    },
    {
      "inputs": [
        {
          "internalType": "uint256",
          "name": "amountToBeWithdrawn",
          "type": "uint256"
        }
      ],
      "name": "withdraw",
      "outputs": [],
      "stateMutability": "nonpayable",
      "type": "function"
    },
    {
      "inputs": [],
      "name": "getfundsRaised",
      "outputs": [
        {
          "internalType": "uint256",
          "name": "",
          "type": "uint256"
        }
      ],
      "stateMutability": "view",
      "type": "function",
      "constant": true
    }
  ],
  "bytecode": "0x60806040523480156200001157600080fd5b506040518060400160405280600881526020017f4649534854414e4b0000000000000000000000000000000000000000000000008152506040518060400160405280600481526020017f464953480000000000000000000000000000000000000000000000000000000081525081600090816200008f919062000412565b508060019081620000a1919062000412565b505050620000c4620000b8620000ca60201b60201c565b620000d260201b60201c565b620004f9565b600033905090565b6000600760009054906101000a900473ffffffffffffffffffffffffffffffffffffffff16905081600760006101000a81548173ffffffffffffffffffffffffffffffffffffffff021916908373ffffffffffffffffffffffffffffffffffffffff1602179055508173ffffffffffffffffffffffffffffffffffffffff168173ffffffffffffffffffffffffffffffffffffffff167f8be0079c531659141344cd1fd0a4f28419497f9722a3daafe3b4186f6b6457e060405160405180910390a35050565b600081519050919050565b7f4e487b7100000000000000000000000000000000000000000000000000000000600052604160045260246000fd5b7f4e487b7100000000000000000000000000000000000000000000000000000000600052602260045260246000fd5b600060028204905060018216806200021a57607f821691505b60208210810362000230576200022f620001d2565b5b50919050565b60008190508160005260206000209050919050565b60006020601f8301049050919050565b600082821b905092915050565b6000600883026200029a7fffffffffffffffffffffffffffffffffffffffffffffffffffffffffffffffff826200025b565b620002a686836200025b565b95508019841693508086168417925050509392505050565b6000819050919050565b6000819050919050565b6000620002f3620002ed620002e784620002be565b620002c8565b620002be565b9050919050565b6000819050919050565b6200030f83620002d2565b620003276200031e82620002fa565b84845462000268565b825550505050565b600090565b6200033e6200032f565b6200034b81848462000304565b505050565b5b8181101562000373576200036760008262000334565b60018101905062000351565b5050565b601f821115620003c2576200038c8162000236565b62000397846200024b565b81016020851015620003a7578190505b620003bf620003b6856200024b565b83018262000350565b50505b505050565b600082821c905092915050565b6000620003e760001984600802620003c7565b1980831691505092915050565b6000620004028383620003d4565b9150826002028217905092915050565b6200041d8262000198565b67ffffffffffffffff811115620004395762000438620001a3565b5b62000445825462000201565b6200045282828562000377565b600060209050601f8311600181146200048a576000841562000475578287015190505b620004818582620003f4565b865550620004f1565b601f1984166200049a8662000236565b60005b82811015620004c4578489015182556001820191506020850194506020810190506200049d565b86831015620004e45784890151620004e0601f891682620003d4565b8355505b6001600288020188555050505b505050505050565b613bf080620005096000396000f3fe60806040526004361061019c5760003560e01c8063715018a6116100ec578063b88d4fde1161008a578063cc896f1a11610064578063cc896f1a146105b8578063e985e9c5146105f5578063f207564e14610632578063f2fde38b1461065b5761019c565b8063b88d4fde14610536578063b9b8c2461461055f578063c87b56dd1461057b5761019c565b80639bfcd663116100c65780639bfcd66314610465578063a198272414610490578063a22cb465146104cd578063b31e26e4146104f65761019c565b8063715018a6146103f85780638da5cb5b1461040f57806395d89b411461043a5761019c565b806323b872dd116101595780636352211e116101335780636352211e1461032c5780636b86c948146103695780636fba07531461039257806370a08231146103bb5761019c565b806323b872dd146102b15780632e1a7d4d146102da57806342842e0e146103035761019c565b806301ffc9a7146101a157806306fdde03146101de578063081812fc14610209578063095ea7b31461024657806318160ddd1461026f5780631c8eac0f1461029a575b600080fd5b3480156101ad57600080fd5b506101c860048036038101906101c391906127a5565b610684565b6040516101d591906127ed565b60405180910390f35b3480156101ea57600080fd5b506101f3610766565b6040516102009190612898565b60405180910390f35b34801561021557600080fd5b50610230600480360381019061022b91906128f0565b6107f8565b60405161023d919061295e565b60405180910390f35b34801561025257600080fd5b5061026d600480360381019061026891906129a5565b61083e565b005b34801561027b57600080fd5b50610284610955565b60405161029191906129f4565b60405180910390f35b3480156102a657600080fd5b506102af610966565b005b3480156102bd57600080fd5b506102d860048036038101906102d39190612a0f565b610a8d565b005b3480156102e657600080fd5b5061030160048036038101906102fc91906128f0565b610aed565b005b34801561030f57600080fd5b5061032a60048036038101906103259190612a0f565b610c67565b005b34801561033857600080fd5b50610353600480360381019061034e91906128f0565b610c87565b604051610360919061295e565b60405180910390f35b34801561037557600080fd5b50610390600480360381019061038b91906128f0565b610d0d565b005b34801561039e57600080fd5b506103b960048036038101906103b49190612b97565b610e34565b005b3480156103c757600080fd5b506103e260048036038101906103dd9190612be0565b610eef565b6040516103ef91906129f4565b60405180910390f35b34801561040457600080fd5b5061040d610fa6565b005b34801561041b57600080fd5b50610424610fba565b604051610431919061295e565b60405180910390f35b34801561044657600080fd5b5061044f610fe4565b60405161045c9190612898565b60405180910390f35b34801561047157600080fd5b5061047a611076565b60405161048791906129f4565b60405180910390f35b34801561049c57600080fd5b506104b760048036038101906104b291906128f0565b611142565b6040516104c491906127ed565b60405180910390f35b3480156104d957600080fd5b506104f460048036038101906104ef9190612c39565b61119d565b005b34801561050257600080fd5b5061051d60048036038101906105189190612be0565b6111b3565b60405161052d9493929190612c79565b60405180910390f35b34801561054257600080fd5b5061055d60048036038101906105589190612d66565b611278565b005b61057960048036038101906105749190612e27565b6112da565b005b34801561058757600080fd5b506105a2600480360381019061059d91906128f0565b6113d7565b6040516105af9190612898565b60405180910390f35b3480156105c457600080fd5b506105df60048036038101906105da9190612e67565b6114e9565b6040516105ec91906129f4565b60405180910390f35b34801561060157600080fd5b5061061c60048036038101906106179190612ec3565b611529565b60405161062991906127ed565b60405180910390f35b34801561063e57600080fd5b50610659600480360381019061065491906128f0565b6115bd565b005b34801561066757600080fd5b50610682600480360381019061067d9190612be0565b611604565b005b60007f80ac58cd000000000000000000000000000000000000000000000000000000007bffffffffffffffffffffffffffffffffffffffffffffffffffffffff1916827bffffffffffffffffffffffffffffffffffffffffffffffffffffffff1916148061074f57507f5b5e139f000000000000000000000000000000000000000000000000000000007bffffffffffffffffffffffffffffffffffffffffffffffffffffffff1916827bffffffffffffffffffffffffffffffffffffffffffffffffffffffff1916145b8061075f575061075e82611687565b5b9050919050565b60606000805461077590612f32565b80601f01602080910402602001604051908101604052809291908181526020018280546107a190612f32565b80156107ee5780601f106107c3576101008083540402835291602001916107ee565b820191906000526020600020905b8154815290600101906020018083116107d157829003601f168201915b5050505050905090565b6000610803826116f1565b6004600083815260200190815260200160002060009054906101000a900473ffffffffffffffffffffffffffffffffffffffff169050919050565b600061084982610c87565b90508073ffffffffffffffffffffffffffffffffffffffff168373ffffffffffffffffffffffffffffffffffffffff16036108b9576040517f08c379a00000000000000000000000000000000000000000000000000000000081526004016108b090612fd5565b60405180910390fd5b8073ffffffffffffffffffffffffffffffffffffffff166108d861173c565b73ffffffffffffffffffffffffffffffffffffffff16148061090757506109068161090161173c565b611529565b5b610946576040517f08c379a000000000000000000000000000000000000000000000000000000000815260040161093d90613067565b60405180910390fd5b6109508383611744565b505050565b600061096160086117fd565b905090565b6002600960003373ffffffffffffffffffffffffffffffffffffffff1673ffffffffffffffffffffffffffffffffffffffff16815260200190815260200160002054146109e8576040517f08c379a00000000000000000000000000000000000000000000000000000000081526004016109df906130f9565b60405180910390fd5b6000600a60003373ffffffffffffffffffffffffffffffffffffffff1673ffffffffffffffffffffffffffffffffffffffff16815260200190815260200160002060020160006101000a81548160ff0219169083151502179055506000600a60003373ffffffffffffffffffffffffffffffffffffffff1673ffffffffffffffffffffffffffffffffffffffff16815260200190815260200160002060010181905550565b610a9e610a9861173c565b8261180b565b610add576040517f08c379a0000000000000000000000000000000000000000000000000000000008152600401610ad49061318b565b60405180910390fd5b610ae88383836118a0565b505050565b6002600960003373ffffffffffffffffffffffffffffffffffffffff1673ffffffffffffffffffffffffffffffffffffffff1681526020019081526020016000205414610b6f576040517f08c379a0000000000000000000000000000000000000000000000000000000008152600401610b66906130f9565b60405180910390fd5b6000600a60003373ffffffffffffffffffffffffffffffffffffffff1673ffffffffffffffffffffffffffffffffffffffff16815260200190815260200160002060030154905080821115610bc357600080fd5b3373ffffffffffffffffffffffffffffffffffffffff166108fc839081150290604051600060405180830381858888f19350505050158015610c09573d6000803e3d6000fd5b5081600a60003373ffffffffffffffffffffffffffffffffffffffff1673ffffffffffffffffffffffffffffffffffffffff1681526020019081526020016000206003016000828254610c5c91906131da565b925050819055505050565b610c8283838360405180602001604052806000815250611278565b505050565b600080610c9383611b99565b9050600073ffffffffffffffffffffffffffffffffffffffff168173ffffffffffffffffffffffffffffffffffffffff1603610d04576040517f08c379a0000000000000000000000000000000000000000000000000000000008152600401610cfb9061325a565b60405180910390fd5b80915050919050565b6002600960003373ffffffffffffffffffffffffffffffffffffffff1673ffffffffffffffffffffffffffffffffffffffff1681526020019081526020016000205414610d8f576040517f08c379a0000000000000000000000000000000000000000000000000000000008152600401610d86906130f9565b60405180910390fd5b6001600a60003373ffffffffffffffffffffffffffffffffffffffff1673ffffffffffffffffffffffffffffffffffffffff16815260200190815260200160002060020160006101000a81548160ff02191690831515021790555080600a60003373ffffffffffffffffffffffffffffffffffffffff1673ffffffffffffffffffffffffffffffffffffffff1681526020019081526020016000206001018190555050565b60006040518060800160405280838152602001600081526020016000151581526020016000815250905080600a60003373ffffffffffffffffffffffffffffffffffffffff1673ffffffffffffffffffffffffffffffffffffffff1681526020019081526020016000206000820151816000019081610eb39190613426565b506020820151816001015560408201518160020160006101000a81548160ff021916908315150217905550606082015181600301559050505050565b60008073ffffffffffffffffffffffffffffffffffffffff168273ffffffffffffffffffffffffffffffffffffffff1603610f5f576040517f08c379a0000000000000000000000000000000000000000000000000000000008152600401610f569061356a565b60405180910390fd5b600360008373ffffffffffffffffffffffffffffffffffffffff1673ffffffffffffffffffffffffffffffffffffffff168152602001908152602001600020549050919050565b610fae611bd6565b610fb86000611c54565b565b6000600760009054906101000a900473ffffffffffffffffffffffffffffffffffffffff16905090565b606060018054610ff390612f32565b80601f016020809104026020016040519081016040528092919081815260200182805461101f90612f32565b801561106c5780601f106110415761010080835404028352916020019161106c565b820191906000526020600020905b81548152906001019060200180831161104f57829003601f168201915b5050505050905090565b60006002600960003373ffffffffffffffffffffffffffffffffffffffff1673ffffffffffffffffffffffffffffffffffffffff16815260200190815260200160002054146110fa576040517f08c379a00000000000000000000000000000000000000000000000000000000081526004016110f1906130f9565b60405180910390fd5b600a60003373ffffffffffffffffffffffffffffffffffffffff1673ffffffffffffffffffffffffffffffffffffffff16815260200190815260200160002060030154905090565b600081600960003373ffffffffffffffffffffffffffffffffffffffff1673ffffffffffffffffffffffffffffffffffffffff16815260200190815260200160002054036111935760009050611198565b600190505b919050565b6111af6111a861173c565b8383611d1a565b5050565b600a6020528060005260406000206000915090508060000180546111d690612f32565b80601f016020809104026020016040519081016040528092919081815260200182805461120290612f32565b801561124f5780601f106112245761010080835404028352916020019161124f565b820191906000526020600020905b81548152906001019060200180831161123257829003601f168201915b5050505050908060010154908060020160009054906101000a900460ff16908060030154905084565b61128961128361173c565b8361180b565b6112c8576040517f08c379a00000000000000000000000000000000000000000000000000000000081526004016112bf9061318b565b60405180910390fd5b6112d484848484611e86565b50505050565b80600a60008473ffffffffffffffffffffffffffffffffffffffff1673ffffffffffffffffffffffffffffffffffffffff168152602001908152602001600020600301600082825461132c919061358a565b9250508190555080600a60008473ffffffffffffffffffffffffffffffffffffffff1673ffffffffffffffffffffffffffffffffffffffff168152602001908152602001600020600101600082825461138591906131da565b925050819055508173ffffffffffffffffffffffffffffffffffffffff166108fc349081150290604051600060405180830381858888f193505050501580156113d2573d6000803e3d6000fd5b505050565b60606113e2826116f1565b600060066000848152602001908152602001600020805461140290612f32565b80601f016020809104026020016040519081016040528092919081815260200182805461142e90612f32565b801561147b5780601f106114505761010080835404028352916020019161147b565b820191906000526020600020905b81548152906001019060200180831161145e57829003601f168201915b50505050509050600061148c611ee2565b905060008151036114a15781925050506114e4565b6000825111156114d65780826040516020016114be9291906135fa565b604051602081830303815290604052925050506114e4565b6114df84611ef9565b925050505b919050565b60006114f3611bd6565b6114fd6008611f61565b600061150960086117fd565b90506115158482611f77565b61151f8184612194565b8091505092915050565b6000600560008473ffffffffffffffffffffffffffffffffffffffff1673ffffffffffffffffffffffffffffffffffffffff16815260200190815260200160002060008373ffffffffffffffffffffffffffffffffffffffff1673ffffffffffffffffffffffffffffffffffffffff16815260200190815260200160002060009054906101000a900460ff16905092915050565b80600960003373ffffffffffffffffffffffffffffffffffffffff1673ffffffffffffffffffffffffffffffffffffffff1681526020019081526020016000208190555050565b61160c611bd6565b600073ffffffffffffffffffffffffffffffffffffffff168173ffffffffffffffffffffffffffffffffffffffff160361167b576040517f08c379a000000000000000000000000000000000000000000000000000000000815260040161167290613690565b60405180910390fd5b61168481611c54565b50565b60007f01ffc9a7000000000000000000000000000000000000000000000000000000007bffffffffffffffffffffffffffffffffffffffffffffffffffffffff1916827bffffffffffffffffffffffffffffffffffffffffffffffffffffffff1916149050919050565b6116fa81612201565b611739576040517f08c379a00000000000000000000000000000000000000000000000000000000081526004016117309061325a565b60405180910390fd5b50565b600033905090565b816004600083815260200190815260200160002060006101000a81548173ffffffffffffffffffffffffffffffffffffffff021916908373ffffffffffffffffffffffffffffffffffffffff160217905550808273ffffffffffffffffffffffffffffffffffffffff166117b783610c87565b73ffffffffffffffffffffffffffffffffffffffff167f8c5be1e5ebec7d5bd14f71427d1e84f3dd0314c0f7b2291e5b200ac8c7c3b92560405160405180910390a45050565b600081600001549050919050565b60008061181783610c87565b90508073ffffffffffffffffffffffffffffffffffffffff168473ffffffffffffffffffffffffffffffffffffffff16148061185957506118588185611529565b5b8061189757508373ffffffffffffffffffffffffffffffffffffffff1661187f846107f8565b73ffffffffffffffffffffffffffffffffffffffff16145b91505092915050565b8273ffffffffffffffffffffffffffffffffffffffff166118c082610c87565b73ffffffffffffffffffffffffffffffffffffffff1614611916576040517f08c379a000000000000000000000000000000000000000000000000000000000815260040161190d90613722565b60405180910390fd5b600073ffffffffffffffffffffffffffffffffffffffff168273ffffffffffffffffffffffffffffffffffffffff1603611985576040517f08c379a000000000000000000000000000000000000000000000000000000000815260040161197c906137b4565b60405180910390fd5b6119928383836001612242565b8273ffffffffffffffffffffffffffffffffffffffff166119b282610c87565b73ffffffffffffffffffffffffffffffffffffffff1614611a08576040517f08c379a00000000000000000000000000000000000000000000000000000000081526004016119ff90613722565b60405180910390fd5b6004600082815260200190815260200160002060006101000a81549073ffffffffffffffffffffffffffffffffffffffff02191690556001600360008573ffffffffffffffffffffffffffffffffffffffff1673ffffffffffffffffffffffffffffffffffffffff168152602001908152602001600020600082825403925050819055506001600360008473ffffffffffffffffffffffffffffffffffffffff1673ffffffffffffffffffffffffffffffffffffffff16815260200190815260200160002060008282540192505081905550816002600083815260200190815260200160002060006101000a81548173ffffffffffffffffffffffffffffffffffffffff021916908373ffffffffffffffffffffffffffffffffffffffff160217905550808273ffffffffffffffffffffffffffffffffffffffff168473ffffffffffffffffffffffffffffffffffffffff167fddf252ad1be2c89b69c2b068fc378daa952ba7f163c4a11628f55a4df523b3ef60405160405180910390a4611b948383836001612368565b505050565b60006002600083815260200190815260200160002060009054906101000a900473ffffffffffffffffffffffffffffffffffffffff169050919050565b611bde61173c565b73ffffffffffffffffffffffffffffffffffffffff16611bfc610fba565b73ffffffffffffffffffffffffffffffffffffffff1614611c52576040517f08c379a0000000000000000000000000000000000000000000000000000000008152600401611c4990613820565b60405180910390fd5b565b6000600760009054906101000a900473ffffffffffffffffffffffffffffffffffffffff16905081600760006101000a81548173ffffffffffffffffffffffffffffffffffffffff021916908373ffffffffffffffffffffffffffffffffffffffff1602179055508173ffffffffffffffffffffffffffffffffffffffff168173ffffffffffffffffffffffffffffffffffffffff167f8be0079c531659141344cd1fd0a4f28419497f9722a3daafe3b4186f6b6457e060405160405180910390a35050565b8173ffffffffffffffffffffffffffffffffffffffff168373ffffffffffffffffffffffffffffffffffffffff1603611d88576040517f08c379a0000000000000000000000000000000000000000000000000000000008152600401611d7f9061388c565b60405180910390fd5b80600560008573ffffffffffffffffffffffffffffffffffffffff1673ffffffffffffffffffffffffffffffffffffffff16815260200190815260200160002060008473ffffffffffffffffffffffffffffffffffffffff1673ffffffffffffffffffffffffffffffffffffffff16815260200190815260200160002060006101000a81548160ff0219169083151502179055508173ffffffffffffffffffffffffffffffffffffffff168373ffffffffffffffffffffffffffffffffffffffff167f17307eab39ab6107e8899845ad3d59bd9653f200f220920489ca2b5937696c3183604051611e7991906127ed565b60405180910390a3505050565b611e918484846118a0565b611e9d8484848461236e565b611edc576040517f08c379a0000000000000000000000000000000000000000000000000000000008152600401611ed39061391e565b60405180910390fd5b50505050565b606060405180602001604052806000815250905090565b6060611f04826116f1565b6000611f0e611ee2565b90506000815111611f2e5760405180602001604052806000815250611f59565b80611f38846124f5565b604051602001611f499291906135fa565b6040516020818303038152906040525b915050919050565b6001816000016000828254019250508190555050565b600073ffffffffffffffffffffffffffffffffffffffff168273ffffffffffffffffffffffffffffffffffffffff1603611fe6576040517f08c379a0000000000000000000000000000000000000000000000000000000008152600401611fdd9061398a565b60405180910390fd5b611fef81612201565b1561202f576040517f08c379a0000000000000000000000000000000000000000000000000000000008152600401612026906139f6565b60405180910390fd5b61203d600083836001612242565b61204681612201565b15612086576040517f08c379a000000000000000000000000000000000000000000000000000000000815260040161207d906139f6565b60405180910390fd5b6001600360008473ffffffffffffffffffffffffffffffffffffffff1673ffffffffffffffffffffffffffffffffffffffff16815260200190815260200160002060008282540192505081905550816002600083815260200190815260200160002060006101000a81548173ffffffffffffffffffffffffffffffffffffffff021916908373ffffffffffffffffffffffffffffffffffffffff160217905550808273ffffffffffffffffffffffffffffffffffffffff16600073ffffffffffffffffffffffffffffffffffffffff167fddf252ad1be2c89b69c2b068fc378daa952ba7f163c4a11628f55a4df523b3ef60405160405180910390a4612190600083836001612368565b5050565b61219d82612201565b6121dc576040517f08c379a00000000000000000000000000000000000000000000000000000000081526004016121d390613a88565b60405180910390fd5b806006600084815260200190815260200160002090816121fc9190613426565b505050565b60008073ffffffffffffffffffffffffffffffffffffffff1661222383611b99565b73ffffffffffffffffffffffffffffffffffffffff1614159050919050565b600181111561236257600073ffffffffffffffffffffffffffffffffffffffff168473ffffffffffffffffffffffffffffffffffffffff16146122d65780600360008673ffffffffffffffffffffffffffffffffffffffff1673ffffffffffffffffffffffffffffffffffffffff16815260200190815260200160002060008282546122ce91906131da565b925050819055505b600073ffffffffffffffffffffffffffffffffffffffff168373ffffffffffffffffffffffffffffffffffffffff16146123615780600360008573ffffffffffffffffffffffffffffffffffffffff1673ffffffffffffffffffffffffffffffffffffffff1681526020019081526020016000206000828254612359919061358a565b925050819055505b5b50505050565b50505050565b600061238f8473ffffffffffffffffffffffffffffffffffffffff166125c3565b156124e8578373ffffffffffffffffffffffffffffffffffffffff1663150b7a026123b861173c565b8786866040518563ffffffff1660e01b81526004016123da9493929190613afd565b6020604051808303816000875af192505050801561241657506040513d601f19601f820116820180604052508101906124139190613b5e565b60015b612498573d8060008114612446576040519150601f19603f3d011682016040523d82523d6000602084013e61244b565b606091505b506000815103612490576040517f08c379a00000000000000000000000000000000000000000000000000000000081526004016124879061391e565b60405180910390fd5b805181602001fd5b63150b7a0260e01b7bffffffffffffffffffffffffffffffffffffffffffffffffffffffff1916817bffffffffffffffffffffffffffffffffffffffffffffffffffffffff1916149150506124ed565b600190505b949350505050565b606060006001612504846125e6565b01905060008167ffffffffffffffff81111561252357612522612a6c565b5b6040519080825280601f01601f1916602001820160405280156125555781602001600182028036833780820191505090505b509050600082602001820190505b6001156125b8578080600190039150507f3031323334353637383961626364656600000000000000000000000000000000600a86061a8153600a85816125ac576125ab613b8b565b5b04945060008503612563575b819350505050919050565b6000808273ffffffffffffffffffffffffffffffffffffffff163b119050919050565b600080600090507a184f03e93ff9f4daa797ed6e38ed64bf6a1f0100000000000000008310612644577a184f03e93ff9f4daa797ed6e38ed64bf6a1f010000000000000000838161263a57612639613b8b565b5b0492506040810190505b6d04ee2d6d415b85acef81000000008310612681576d04ee2d6d415b85acef8100000000838161267757612676613b8b565b5b0492506020810190505b662386f26fc1000083106126b057662386f26fc1000083816126a6576126a5613b8b565b5b0492506010810190505b6305f5e10083106126d9576305f5e10083816126cf576126ce613b8b565b5b0492506008810190505b61271083106126fe5761271083816126f4576126f3613b8b565b5b0492506004810190505b60648310612721576064838161271757612716613b8b565b5b0492506002810190505b600a8310612730576001810190505b80915050919050565b6000604051905090565b600080fd5b600080fd5b60007fffffffff0000000000000000000000000000000000000000000000000000000082169050919050565b6127828161274d565b811461278d57600080fd5b50565b60008135905061279f81612779565b92915050565b6000602082840312156127bb576127ba612743565b5b60006127c984828501612790565b91505092915050565b60008115159050919050565b6127e7816127d2565b82525050565b600060208201905061280260008301846127de565b92915050565b600081519050919050565b600082825260208201905092915050565b60005b83811015612842578082015181840152602081019050612827565b60008484015250505050565b6000601f19601f8301169050919050565b600061286a82612808565b6128748185612813565b9350612884818560208601612824565b61288d8161284e565b840191505092915050565b600060208201905081810360008301526128b2818461285f565b905092915050565b6000819050919050565b6128cd816128ba565b81146128d857600080fd5b50565b6000813590506128ea816128c4565b92915050565b60006020828403121561290657612905612743565b5b6000612914848285016128db565b91505092915050565b600073ffffffffffffffffffffffffffffffffffffffff82169050919050565b60006129488261291d565b9050919050565b6129588161293d565b82525050565b6000602082019050612973600083018461294f565b92915050565b6129828161293d565b811461298d57600080fd5b50565b60008135905061299f81612979565b92915050565b600080604083850312156129bc576129bb612743565b5b60006129ca85828601612990565b92505060206129db858286016128db565b9150509250929050565b6129ee816128ba565b82525050565b6000602082019050612a0960008301846129e5565b92915050565b600080600060608486031215612a2857612a27612743565b5b6000612a3686828701612990565b9350506020612a4786828701612990565b9250506040612a58868287016128db565b9150509250925092565b600080fd5b600080fd5b7f4e487b7100000000000000000000000000000000000000000000000000000000600052604160045260246000fd5b612aa48261284e565b810181811067ffffffffffffffff82111715612ac357612ac2612a6c565b5b80604052505050565b6000612ad6612739565b9050612ae28282612a9b565b919050565b600067ffffffffffffffff821115612b0257612b01612a6c565b5b612b0b8261284e565b9050602081019050919050565b82818337600083830152505050565b6000612b3a612b3584612ae7565b612acc565b905082815260208101848484011115612b5657612b55612a67565b5b612b61848285612b18565b509392505050565b600082601f830112612b7e57612b7d612a62565b5b8135612b8e848260208601612b27565b91505092915050565b600060208284031215612bad57612bac612743565b5b600082013567ffffffffffffffff811115612bcb57612bca612748565b5b612bd784828501612b69565b91505092915050565b600060208284031215612bf657612bf5612743565b5b6000612c0484828501612990565b91505092915050565b612c16816127d2565b8114612c2157600080fd5b50565b600081359050612c3381612c0d565b92915050565b60008060408385031215612c5057612c4f612743565b5b6000612c5e85828601612990565b9250506020612c6f85828601612c24565b9150509250929050565b60006080820190508181036000830152612c93818761285f565b9050612ca260208301866129e5565b612caf60408301856127de565b612cbc60608301846129e5565b95945050505050565b600067ffffffffffffffff821115612ce057612cdf612a6c565b5b612ce98261284e565b9050602081019050919050565b6000612d09612d0484612cc5565b612acc565b905082815260208101848484011115612d2557612d24612a67565b5b612d30848285612b18565b509392505050565b600082601f830112612d4d57612d4c612a62565b5b8135612d5d848260208601612cf6565b91505092915050565b60008060008060808587031215612d8057612d7f612743565b5b6000612d8e87828801612990565b9450506020612d9f87828801612990565b9350506040612db0878288016128db565b925050606085013567ffffffffffffffff811115612dd157612dd0612748565b5b612ddd87828801612d38565b91505092959194509250565b6000612df48261291d565b9050919050565b612e0481612de9565b8114612e0f57600080fd5b50565b600081359050612e2181612dfb565b92915050565b60008060408385031215612e3e57612e3d612743565b5b6000612e4c85828601612e12565b9250506020612e5d858286016128db565b9150509250929050565b60008060408385031215612e7e57612e7d612743565b5b6000612e8c85828601612990565b925050602083013567ffffffffffffffff811115612ead57612eac612748565b5b612eb985828601612b69565b9150509250929050565b60008060408385031215612eda57612ed9612743565b5b6000612ee885828601612990565b9250506020612ef985828601612990565b9150509250929050565b7f4e487b7100000000000000000000000000000000000000000000000000000000600052602260045260246000fd5b60006002820490506001821680612f4a57607f821691505b602082108103612f5d57612f5c612f03565b5b50919050565b7f4552433732313a20617070726f76616c20746f2063757272656e74206f776e6560008201527f7200000000000000000000000000000000000000000000000000000000000000602082015250565b6000612fbf602183612813565b9150612fca82612f63565b604082019050919050565b60006020820190508181036000830152612fee81612fb2565b9050919050565b7f4552433732313a20617070726f76652063616c6c6572206973206e6f7420746f60008201527f6b656e206f776e6572206f7220617070726f76656420666f7220616c6c000000602082015250565b6000613051603d83612813565b915061305c82612ff5565b604082019050919050565b6000602082019050818103600083015261308081613044565b9050919050565b7f4f6e6c79207265676973746572656420427573696e65737365732063616e206360008201527f616c6c20746869732066756e6374696f6e000000000000000000000000000000602082015250565b60006130e3603183612813565b91506130ee82613087565b604082019050919050565b60006020820190508181036000830152613112816130d6565b9050919050565b7f4552433732313a2063616c6c6572206973206e6f7420746f6b656e206f776e6560008201527f72206f7220617070726f76656400000000000000000000000000000000000000602082015250565b6000613175602d83612813565b915061318082613119565b604082019050919050565b600060208201905081810360008301526131a481613168565b9050919050565b7f4e487b7100000000000000000000000000000000000000000000000000000000600052601160045260246000fd5b60006131e5826128ba565b91506131f0836128ba565b9250828203905081811115613208576132076131ab565b5b92915050565b7f4552433732313a20696e76616c696420746f6b656e2049440000000000000000600082015250565b6000613244601883612813565b915061324f8261320e565b602082019050919050565b6000602082019050818103600083015261327381613237565b9050919050565b60008190508160005260206000209050919050565b60006020601f8301049050919050565b600082821b905092915050565b6000600883026132dc7fffffffffffffffffffffffffffffffffffffffffffffffffffffffffffffffff8261329f565b6132e6868361329f565b95508019841693508086168417925050509392505050565b6000819050919050565b600061332361331e613319846128ba565b6132fe565b6128ba565b9050919050565b6000819050919050565b61333d83613308565b6133516133498261332a565b8484546132ac565b825550505050565b600090565b613366613359565b613371818484613334565b505050565b5b818110156133955761338a60008261335e565b600181019050613377565b5050565b601f8211156133da576133ab8161327a565b6133b48461328f565b810160208510156133c3578190505b6133d76133cf8561328f565b830182613376565b50505b505050565b600082821c905092915050565b60006133fd600019846008026133df565b1980831691505092915050565b600061341683836133ec565b9150826002028217905092915050565b61342f82612808565b67ffffffffffffffff81111561344857613447612a6c565b5b6134528254612f32565b61345d828285613399565b600060209050601f831160018114613490576000841561347e578287015190505b613488858261340a565b8655506134f0565b601f19841661349e8661327a565b60005b828110156134c6578489015182556001820191506020850194506020810190506134a1565b868310156134e357848901516134df601f8916826133ec565b8355505b6001600288020188555050505b505050505050565b7f4552433732313a2061646472657373207a65726f206973206e6f74206120766160008201527f6c6964206f776e65720000000000000000000000000000000000000000000000602082015250565b6000613554602983612813565b915061355f826134f8565b604082019050919050565b6000602082019050818103600083015261358381613547565b9050919050565b6000613595826128ba565b91506135a0836128ba565b92508282019050808211156135b8576135b76131ab565b5b92915050565b600081905092915050565b60006135d482612808565b6135de81856135be565b93506135ee818560208601612824565b80840191505092915050565b600061360682856135c9565b915061361282846135c9565b91508190509392505050565b7f4f776e61626c653a206e6577206f776e657220697320746865207a65726f206160008201527f6464726573730000000000000000000000000000000000000000000000000000602082015250565b600061367a602683612813565b91506136858261361e565b604082019050919050565b600060208201905081810360008301526136a98161366d565b9050919050565b7f4552433732313a207472616e736665722066726f6d20696e636f72726563742060008201527f6f776e6572000000000000000000000000000000000000000000000000000000602082015250565b600061370c602583612813565b9150613717826136b0565b604082019050919050565b6000602082019050818103600083015261373b816136ff565b9050919050565b7f4552433732313a207472616e7366657220746f20746865207a65726f2061646460008201527f7265737300000000000000000000000000000000000000000000000000000000602082015250565b600061379e602483612813565b91506137a982613742565b604082019050919050565b600060208201905081810360008301526137cd81613791565b9050919050565b7f4f776e61626c653a2063616c6c6572206973206e6f7420746865206f776e6572600082015250565b600061380a602083612813565b9150613815826137d4565b602082019050919050565b60006020820190508181036000830152613839816137fd565b9050919050565b7f4552433732313a20617070726f766520746f2063616c6c657200000000000000600082015250565b6000613876601983612813565b915061388182613840565b602082019050919050565b600060208201905081810360008301526138a581613869565b9050919050565b7f4552433732313a207472616e7366657220746f206e6f6e20455243373231526560008201527f63656976657220696d706c656d656e7465720000000000000000000000000000602082015250565b6000613908603283612813565b9150613913826138ac565b604082019050919050565b60006020820190508181036000830152613937816138fb565b9050919050565b7f4552433732313a206d696e7420746f20746865207a65726f2061646472657373600082015250565b6000613974602083612813565b915061397f8261393e565b602082019050919050565b600060208201905081810360008301526139a381613967565b9050919050565b7f4552433732313a20746f6b656e20616c7265616479206d696e74656400000000600082015250565b60006139e0601c83612813565b91506139eb826139aa565b602082019050919050565b60006020820190508181036000830152613a0f816139d3565b9050919050565b7f45524337323155524953746f726167653a2055524920736574206f66206e6f6e60008201527f6578697374656e7420746f6b656e000000000000000000000000000000000000602082015250565b6000613a72602e83612813565b9150613a7d82613a16565b604082019050919050565b60006020820190508181036000830152613aa181613a65565b9050919050565b600081519050919050565b600082825260208201905092915050565b6000613acf82613aa8565b613ad98185613ab3565b9350613ae9818560208601612824565b613af28161284e565b840191505092915050565b6000608082019050613b12600083018761294f565b613b1f602083018661294f565b613b2c60408301856129e5565b8181036060830152613b3e8184613ac4565b905095945050505050565b600081519050613b5881612779565b92915050565b600060208284031215613b7457613b73612743565b5b6000613b8284828501613b49565b91505092915050565b7f4e487b7100000000000000000000000000000000000000000000000000000000600052601260045260246000fdfea26469706673582212206c2a8ada4a8f184bcfc8e1c2f84ccb7467168ece8797bae52ad825a048be2d6764736f6c63430008110033",
  "immutableReferences": {},
  "source": "//SPDX-License-Identifier: UNLICENSED\n\npragma solidity ^0.8.12;\n\nimport \"@openzeppelin/contracts/token/ERC721/extensions/ERC721URIStorage.sol\";\nimport \"@openzeppelin/contracts/access/Ownable.sol\";\nimport \"@openzeppelin/contracts/utils/Counters.sol\";\n\ncontract FishTankContract is ERC721URIStorage, Ownable {\n    using Counters for Counters.Counter;\n    Counters.Counter private _tokenIds;\n\n    mapping(address => uint) memberShip; //maps the user address to a unit which describes if they are an investor or a business\n\n    mapping(address => Business) public businesses; //maps the user address to more info about the business\n\n    struct Business {\n        string name; //name of the business\n        uint funds_needed; //funds needed for the round\n        bool funding; //boolean that establishes if the business is looking for funding or not\n        uint funds_raised; //amount of funding raised\n    }\n\n    constructor() ERC721(\"FISHTANK\", \"FISH\") {}\n\n    function totalSupply() public view returns (uint256) {\n        return _tokenIds.current();\n    }\n\n    function giveToken(address minter, string memory tokenURI)\n        public\n        onlyOwner\n        returns (uint256)\n    {\n        _tokenIds.increment();\n        uint256 newItemID = _tokenIds.current();\n        _mint(minter, newItemID);\n        _setTokenURI(newItemID, tokenURI);\n        return newItemID;\n    }\n\n    // receive() external payable{}\n\n    //Register\n    //uint 1 = investor\n    //uint 2 = business\n    function useralreadyExists(uint memberType) public view returns (bool) {\n        //checking if the user already exists\n        if (memberShip[msg.sender] == memberType) {\n            return false;\n        } else {\n            return true;\n        }\n    }\n\n    //resistering the user\n    function register(uint memberType) public {\n        memberShip[msg.sender] = memberType;\n    }\n\n    //function to create a record of the business\n    function createBuisness(string memory name) public {\n        Business memory new_business = Business(name, 0, false, 0);\n        businesses[msg.sender] = new_business;\n    }\n\n    //function to change the values of the business struct to indicate start of the funding\n    function startFunding(uint funds) public onlyBusiness {\n        businesses[msg.sender].funding = true;\n        businesses[msg.sender].funds_needed = funds;\n    }\n\n    //Ends funding for the business\n    function endFunding() public onlyBusiness {\n        businesses[msg.sender].funding = false;\n        businesses[msg.sender].funds_needed = 0;\n    }\n\n    //the function stores the ether in the contract\n    function invest(address payable business, uint256 amount) external payable {\n        //require(msg.value == amount); //makes sure the right amount was sent\n        businesses[business].funds_raised += amount; //keeps track of the funds raised\n        businesses[business].funds_needed -= amount; //subtracts the amount from funds needed\n        business.transfer(msg.value);\n}\n\n    //function lets businesses withdraw an amount specified by them\n    function withdraw(uint256 amountToBeWithdrawn) public onlyBusiness {\n        //funds business has raised so far\n        uint256 fundsRaised = businesses[msg.sender].funds_raised;\n\n        //makes sure that the business can't withdraw more ether than they have raised\n        require(amountToBeWithdrawn <= fundsRaised);\n\n        payable(msg.sender).transfer(amountToBeWithdrawn);\n        businesses[msg.sender].funds_raised -= amountToBeWithdrawn;\n    }\n\n    //get the value of funds_raised\n    function getfundsRaised() public view onlyBusiness returns (uint256) {\n        return businesses[msg.sender].funds_raised;\n    }\n\n    //Modifiers\n\n    //makes sure that only businesses can call a certain function\n    modifier onlyBusiness() {\n        require(\n            memberShip[msg.sender] == 2,\n            \"Only registered Businesses can call this function\"\n        );\n        _;\n    }\n}\n",
  "sourcePath": "/Users/kevintruong/School/Grad/FishTank/FishTank-Contract/contracts/FishTankContract.sol",
  "compiler": {
    "name": "solc",
    "version": "0.8.17+commit.8df45f5f.Emscripten.clang"
  },
  "schemaVersion": "3.4.10",
  "updatedAt": "2022-11-20T17:17:49.600Z",
  "networkType": "ethereum",
  "devdoc": {
    "kind": "dev",
    "methods": {
      "approve(address,uint256)": {
        "details": "See {IERC721-approve}."
      },
      "balanceOf(address)": {
        "details": "See {IERC721-balanceOf}."
      },
      "getApproved(uint256)": {
        "details": "See {IERC721-getApproved}."
      },
      "isApprovedForAll(address,address)": {
        "details": "See {IERC721-isApprovedForAll}."
      },
      "name()": {
        "details": "See {IERC721Metadata-name}."
      },
      "owner()": {
        "details": "Returns the address of the current owner."
      },
      "ownerOf(uint256)": {
        "details": "See {IERC721-ownerOf}."
      },
      "renounceOwnership()": {
        "details": "Leaves the contract without owner. It will not be possible to call `onlyOwner` functions anymore. Can only be called by the current owner. NOTE: Renouncing ownership will leave the contract without an owner, thereby removing any functionality that is only available to the owner."
      },
      "safeTransferFrom(address,address,uint256)": {
        "details": "See {IERC721-safeTransferFrom}."
      },
      "safeTransferFrom(address,address,uint256,bytes)": {
        "details": "See {IERC721-safeTransferFrom}."
      },
      "setApprovalForAll(address,bool)": {
        "details": "See {IERC721-setApprovalForAll}."
      },
      "supportsInterface(bytes4)": {
        "details": "See {IERC165-supportsInterface}."
      },
      "symbol()": {
        "details": "See {IERC721Metadata-symbol}."
      },
      "tokenURI(uint256)": {
        "details": "See {IERC721Metadata-tokenURI}."
      },
      "transferFrom(address,address,uint256)": {
        "details": "See {IERC721-transferFrom}."
      },
      "transferOwnership(address)": {
        "details": "Transfers ownership of the contract to a new account (`newOwner`). Can only be called by the current owner."
      }
    },
    "version": 1
  },
  "userdoc": {
    "kind": "user",
    "methods": {},
    "version": 1
  }
}